{
  "contractName": "SongCrowdSale",
  "abi": [
    {
      "constant": true,
      "inputs": [],
      "name": "minPreSaleETH",
      "outputs": [
        {
          "name": "",
          "type": "uint256"
        }
      ],
      "payable": false,
      "stateMutability": "view",
      "type": "function"
    },
    {
      "constant": true,
      "inputs": [],
      "name": "rate",
      "outputs": [
        {
          "name": "",
          "type": "uint256"
        }
      ],
      "payable": false,
      "stateMutability": "view",
      "type": "function"
    },
    {
      "constant": true,
      "inputs": [],
      "name": "weiRaised",
      "outputs": [
        {
          "name": "",
          "type": "uint256"
        }
      ],
      "payable": false,
      "stateMutability": "view",
      "type": "function"
    },
    {
      "constant": true,
      "inputs": [],
      "name": "wallet",
      "outputs": [
        {
          "name": "",
          "type": "address"
        }
      ],
      "payable": false,
      "stateMutability": "view",
      "type": "function"
    },
    {
      "constant": true,
      "inputs": [],
      "name": "minMainSaleETH",
      "outputs": [
        {
          "name": "",
          "type": "uint256"
        }
      ],
      "payable": false,
      "stateMutability": "view",
      "type": "function"
    },
    {
      "constant": true,
      "inputs": [],
      "name": "owner",
      "outputs": [
        {
          "name": "",
          "type": "address"
        }
      ],
      "payable": false,
      "stateMutability": "view",
      "type": "function"
    },
    {
      "constant": true,
      "inputs": [],
      "name": "teamTokens",
      "outputs": [
        {
          "name": "",
          "type": "uint256"
        }
      ],
      "payable": false,
      "stateMutability": "view",
      "type": "function"
    },
    {
      "constant": false,
      "inputs": [
        {
          "name": "_newOwner",
          "type": "address"
        }
      ],
      "name": "transferOwnership",
      "outputs": [],
      "payable": false,
      "stateMutability": "nonpayable",
      "type": "function"
    },
    {
      "constant": true,
      "inputs": [],
      "name": "token",
      "outputs": [
        {
          "name": "",
          "type": "address"
        }
      ],
      "payable": false,
      "stateMutability": "view",
      "type": "function"
    },
    {
      "inputs": [
        {
          "name": "_price",
          "type": "uint256"
        },
        {
          "name": "_wallet",
          "type": "address"
        },
        {
          "name": "_song",
          "type": "address"
        },
        {
          "name": "_teamTokens",
          "type": "uint256"
        },
        {
          "name": "constraints",
          "type": "uint256[]"
        },
        {
          "name": "_duration",
          "type": "uint256"
        },
        {
          "name": "_presaleduration",
          "type": "uint256"
        },
        {
          "name": "bonuses",
          "type": "uint8[]"
        }
      ],
      "payable": false,
      "stateMutability": "nonpayable",
      "type": "constructor"
    },
    {
      "payable": true,
      "stateMutability": "payable",
      "type": "fallback"
    },
    {
      "anonymous": false,
      "inputs": [
        {
          "indexed": true,
          "name": "purchaser",
          "type": "address"
        },
        {
          "indexed": true,
          "name": "beneficiary",
          "type": "address"
        },
        {
          "indexed": false,
          "name": "value",
          "type": "uint256"
        },
        {
          "indexed": false,
          "name": "amount",
          "type": "uint256"
        }
      ],
      "name": "TokenPurchase",
      "type": "event"
    },
    {
      "constant": true,
      "inputs": [],
      "name": "CampaignState",
      "outputs": [
        {
          "name": "",
          "type": "string"
        }
      ],
      "payable": false,
      "stateMutability": "view",
      "type": "function"
    },
    {
      "constant": false,
      "inputs": [
        {
          "name": "_newwallet",
          "type": "address"
        }
      ],
      "name": "ChangeWallet",
      "outputs": [
        {
          "name": "",
          "type": "bool"
        }
      ],
      "payable": false,
      "stateMutability": "nonpayable",
      "type": "function"
    },
    {
      "constant": false,
      "inputs": [
        {
          "name": "_tokenAddress",
          "type": "address"
        }
      ],
      "name": "SetTokenAddress",
      "outputs": [
        {
          "name": "",
          "type": "bool"
        }
      ],
      "payable": false,
      "stateMutability": "nonpayable",
      "type": "function"
    },
    {
      "constant": false,
      "inputs": [],
      "name": "withdrawFunds",
      "outputs": [
        {
          "name": "",
          "type": "bool"
        }
      ],
      "payable": false,
      "stateMutability": "nonpayable",
      "type": "function"
    },
    {
      "constant": false,
      "inputs": [
        {
          "name": "_testNow",
          "type": "uint256"
        }
      ],
      "name": "SetTestNow",
      "outputs": [],
      "payable": false,
      "stateMutability": "nonpayable",
      "type": "function"
    },
    {
      "constant": true,
      "inputs": [],
      "name": "GetSaleInformation",
      "outputs": [
        {
          "name": "_price",
          "type": "uint256"
        },
        {
          "name": "_wallet",
          "type": "address"
        },
        {
          "name": "_song",
          "type": "address"
        },
        {
          "name": "_teamTokens",
          "type": "uint256"
        },
        {
          "name": "_minpresale",
          "type": "uint256"
        },
        {
          "name": "_minMainSaleETH",
          "type": "uint256"
        },
        {
          "name": "_maxETH",
          "type": "uint256"
        },
        {
          "name": "_minCap",
          "type": "uint256"
        },
        {
          "name": "_duration",
          "type": "uint256"
        },
        {
          "name": "_presaleduration",
          "type": "uint256"
        }
      ],
      "payable": false,
      "stateMutability": "view",
      "type": "function"
    },
    {
      "constant": true,
      "inputs": [],
      "name": "GetStats",
      "outputs": [
        {
          "name": "_contribution",
          "type": "uint256"
        },
        {
          "name": "_volume",
          "type": "uint256"
        },
        {
          "name": "_phase",
          "type": "uint8"
        }
      ],
      "payable": false,
      "stateMutability": "view",
      "type": "function"
    },
    {
      "constant": false,
      "inputs": [
        {
          "name": "_beneficiary",
          "type": "address"
        }
      ],
      "name": "buyTokens",
      "outputs": [
        {
          "name": "",
          "type": "bool"
        }
      ],
      "payable": true,
      "stateMutability": "payable",
      "type": "function"
    },
    {
      "constant": false,
      "inputs": [],
      "name": "refund",
      "outputs": [],
      "payable": false,
      "stateMutability": "nonpayable",
      "type": "function"
    },
    {
      "constant": true,
      "inputs": [],
      "name": "GetBalance",
      "outputs": [
        {
          "name": "",
          "type": "uint256"
        }
      ],
      "payable": false,
      "stateMutability": "view",
      "type": "function"
    },
    {
      "constant": true,
      "inputs": [],
      "name": "GetToken",
      "outputs": [
        {
          "name": "",
          "type": "address"
        }
      ],
      "payable": false,
      "stateMutability": "view",
      "type": "function"
    }
  ],
  "bytecode": "0x608060405260016018556000601a60006101000a81548160ff0219169083151502179055506000601a60016101000a81548160ff0219169083151502179055506000601a60026101000a81548160ff0219169083151502179055506001601c60006101000a81548160ff0219169083151502179055506000601d553480156200008757600080fd5b506040516200206138038062002061833981018060405281019080805190602001909291908051906020019092919080519060200190929190805190602001909291908051820192919060200180519060200190929190805190602001909291908051820192919050505060008060008060008c8c8c600073ffffffffffffffffffffffffffffffffffffffff168173ffffffffffffffffffffffffffffffffffffffff16141515156200013a57600080fd5b8260028190555081600160006101000a81548173ffffffffffffffffffffffffffffffffffffffff021916908373ffffffffffffffffffffffffffffffffffffffff160217905550806000806101000a81548173ffffffffffffffffffffffffffffffffffffffff021916908373ffffffffffffffffffffffffffffffffffffffff16021790555050505033600460006101000a81548173ffffffffffffffffffffffffffffffffffffffff021916908373ffffffffffffffffffffffffffffffffffffffff1602179055508860008151811015156200021657fe5b9060200190602002015194508860018151811015156200023257fe5b9060200190602002015193508860028151811015156200024e57fe5b9060200190602002015192508860038151811015156200026a57fe5b9060200190602002015191508860048151811015156200028657fe5b9060200190602002015190508a6000806101000a81548173ffffffffffffffffffffffffffffffffffffffff021916908373ffffffffffffffffffffffffffffffffffffffff1602179055508460068190555083600781905550826008819055508160098190555080600a8190555087600b8190555086600c819055506200031c6200057f640100000000026401000000009004565b601981905550603c806018600c5402020260195401600d81905550603c806018600b54020202600d5401600e819055508960058190555032600460006101000a81548173ffffffffffffffffffffffffffffffffffffffff021916908373ffffffffffffffffffffffffffffffffffffffff1602179055506008865114156200053657600c54866000815181101515620003b257fe5b9060200190602002015160ff1611151515620003cd57600080fd5b600b54866006815181101515620003e057fe5b90602001906020020151876004815181101515620003fa57fe5b906020019060200201518860028151811015156200041457fe5b90602001906020020151010160ff16111515156200043157600080fd5b620004b28660018151811015156200044557fe5b906020019060200201518760038151811015156200045f57fe5b906020019060200201518860058151811015156200047957fe5b906020019060200201518960078151811015156200049357fe5b90602001906020020151620005b0640100000000026401000000009004565b5062000534866000815181101515620004c757fe5b90602001906020020151876002815181101515620004e157fe5b90602001906020020151886004815181101515620004fb57fe5b906020019060200201518960068151811015156200051557fe5b90602001906020020151620005e6640100000000026401000000009004565b505b600060065411806200054a57506000600754115b156200056c576001601a60026101000a81548160ff0219169083151502179055505b505050505050505050505050506200061c565b600060011515601c60009054906101000a900460ff1615151415620005a957601d549050620005ad565b4290505b90565b60008460ff166013819055508360ff166014819055508260ff166015819055508160ff1660168190555060019050949350505050565b60008460ff16600f819055508360ff166010819055508260ff166011819055508160ff1660128190555060019050949350505050565b611a35806200062c6000396000f300608060405260043610610112576000357c0100000000000000000000000000000000000000000000000000000000900463ffffffff168063072982031461011e57806307875a6d1461015d57806324600fc3146101885780632c4e722e146101b757806333a7e739146101e25780633981f79a1461023d5780634042b66f146102ff578063521eb2731461032a578063590e1ae3146103815780635e854bf9146103985780637602892b146103f3578063764961501461044a5780638caaac49146104da5780638da5cb5b14610505578063c3e3c7bc1461055c578063d16b421114610587578063ec8ac4d8146105b4578063f2fde38b14610602578063f8f8a91214610645578063fc0c546a14610670575b61011b336106c7565b50005b34801561012a57600080fd5b50610133610849565b604051808481526020018381526020018260ff1660ff168152602001935050505060405180910390f35b34801561016957600080fd5b50610172610862565b6040518082815260200191505060405180910390f35b34801561019457600080fd5b5061019d610868565b604051808215151515815260200191505060405180910390f35b3480156101c357600080fd5b506101cc610966565b6040518082815260200191505060405180910390f35b3480156101ee57600080fd5b50610223600480360381019080803573ffffffffffffffffffffffffffffffffffffffff16906020019092919050505061096c565b604051808215151515815260200191505060405180910390f35b34801561024957600080fd5b50610252610b79565b604051808b81526020018a73ffffffffffffffffffffffffffffffffffffffff1673ffffffffffffffffffffffffffffffffffffffff1681526020018973ffffffffffffffffffffffffffffffffffffffff1673ffffffffffffffffffffffffffffffffffffffff1681526020018881526020018781526020018681526020018581526020018481526020018381526020018281526020019a505050505050505050505060405180910390f35b34801561030b57600080fd5b50610314610c08565b6040518082815260200191505060405180910390f35b34801561033657600080fd5b5061033f610c0e565b604051808273ffffffffffffffffffffffffffffffffffffffff1673ffffffffffffffffffffffffffffffffffffffff16815260200191505060405180910390f35b34801561038d57600080fd5b50610396610c34565b005b3480156103a457600080fd5b506103d9600480360381019080803573ffffffffffffffffffffffffffffffffffffffff169060200190929190505050610db2565b604051808215151515815260200191505060405180910390f35b3480156103ff57600080fd5b50610408610ee5565b604051808273ffffffffffffffffffffffffffffffffffffffff1673ffffffffffffffffffffffffffffffffffffffff16815260200191505060405180910390f35b34801561045657600080fd5b5061045f610f0e565b6040518080602001828103825283818151815260200191508051906020019080838360005b8381101561049f578082015181840152602081019050610484565b50505050905090810190601f1680156104cc5780820380516001836020036101000a031916815260200191505b509250505060405180910390f35b3480156104e657600080fd5b506104ef611102565b6040518082815260200191505060405180910390f35b34801561051157600080fd5b5061051a611108565b604051808273ffffffffffffffffffffffffffffffffffffffff1673ffffffffffffffffffffffffffffffffffffffff16815260200191505060405180910390f35b34801561056857600080fd5b5061057161112e565b6040518082815260200191505060405180910390f35b34801561059357600080fd5b506105b260048036038101908080359060200190929190505050611134565b005b6105e8600480360381019080803573ffffffffffffffffffffffffffffffffffffffff1690602001909291905050506106c7565b604051808215151515815260200191505060405180910390f35b34801561060e57600080fd5b50610643600480360381019080803573ffffffffffffffffffffffffffffffffffffffff16906020019092919050505061119a565b005b34801561065157600080fd5b5061065a61121a565b6040518082815260200191505060405180910390f35b34801561067c57600080fd5b50610685611318565b604051808273ffffffffffffffffffffffffffffffffffffffff1673ffffffffffffffffffffffffffffffffffffffff16815260200191505060405180910390f35b6000806000801515601a60009054906101000a900460ff1615151415156106ed57600080fd5b600260048111156106fa57fe5b61070261133d565b600481111561070d57fe5b1415151561071a57600080fd5b6003600481111561072757fe5b61072f61133d565b600481111561073a57fe5b14156107a7576001601a60006101000a81548160ff0219169083151502179055503373ffffffffffffffffffffffffffffffffffffffff166108fc349081150290604051600060405180830381858888f193505050501580156107a1573d6000803e3d6000fd5b50610842565b3491506107b38261142c565b90506107bf848261147e565b8373ffffffffffffffffffffffffffffffffffffffff163373ffffffffffffffffffffffffffffffffffffffff167f623b3804fa71d67900d064613da8f94b9617215ee90799290593e1745087ad188484604051808381526020018281526020019250505060405180910390a361083784838361148c565b610841848361155c565b5b5050919050565b6000806000600354601754601854925092509250909192565b60065481565b600080600160009054906101000a900473ffffffffffffffffffffffffffffffffffffffff1673ffffffffffffffffffffffffffffffffffffffff163373ffffffffffffffffffffffffffffffffffffffff161415156108c757600080fd5b600260048111156108d457fe5b6108dc61133d565b60048111156108e757fe5b1415156108f357600080fd5b600354905060006003819055503373ffffffffffffffffffffffffffffffffffffffff166108fc829081150290604051600060405180830381858888f19350505050158015610946573d6000803e3d6000fd5b506001601a60016101000a81548160ff0219169083151502179055505090565b60025481565b6000600460009054906101000a900473ffffffffffffffffffffffffffffffffffffffff1673ffffffffffffffffffffffffffffffffffffffff163373ffffffffffffffffffffffffffffffffffffffff161415156109ca57600080fd5b600073ffffffffffffffffffffffffffffffffffffffff168273ffffffffffffffffffffffffffffffffffffffff1614151515610a6f576040517f08c379a00000000000000000000000000000000000000000000000000000000081526004018080602001828103825260158152602001807f546f6b656e2041646472657373206973205a65726f000000000000000000000081525060200191505060405180910390fd5b600073ffffffffffffffffffffffffffffffffffffffff166000809054906101000a900473ffffffffffffffffffffffffffffffffffffffff1673ffffffffffffffffffffffffffffffffffffffff16141515610b34576040517f08c379a00000000000000000000000000000000000000000000000000000000081526004018080602001828103825260198152602001807f546f6b656e2077617320616c726561647920646566696e65640000000000000081525060200191505060405180910390fd5b816000806101000a81548173ffffffffffffffffffffffffffffffffffffffff021916908373ffffffffffffffffffffffffffffffffffffffff160217905550919050565b600080600080600080600080600080600254600160009054906101000a900473ffffffffffffffffffffffffffffffffffffffff166000809054906101000a900473ffffffffffffffffffffffffffffffffffffffff16600554600654600754600854600a54600b54600c54879750995099509950995099509950995099509950995090919293949596979899565b60035481565b600160009054906101000a900473ffffffffffffffffffffffffffffffffffffffff1681565b600080601b60003373ffffffffffffffffffffffffffffffffffffffff1673ffffffffffffffffffffffffffffffffffffffff16815260200190815260200160002054111515610c8357600080fd5b601a60009054906101000a900460ff1680610cbb575060036004811115610ca657fe5b610cae61133d565b6004811115610cb957fe5b145b1515610cc657600080fd5b6001601a60006101000a81548160ff021916908315150217905550601b60003373ffffffffffffffffffffffffffffffffffffffff1673ffffffffffffffffffffffffffffffffffffffff1681526020019081526020016000205490506000601b60003373ffffffffffffffffffffffffffffffffffffffff1673ffffffffffffffffffffffffffffffffffffffff168152602001908152602001600020819055503373ffffffffffffffffffffffffffffffffffffffff166108fc829081150290604051600060405180830381858888f19350505050158015610dae573d6000803e3d6000fd5b5050565b6000600460009054906101000a900473ffffffffffffffffffffffffffffffffffffffff1673ffffffffffffffffffffffffffffffffffffffff163373ffffffffffffffffffffffffffffffffffffffff16141515610e1057600080fd5b60008273ffffffffffffffffffffffffffffffffffffffff1614151515610e9f576040517f08c379a00000000000000000000000000000000000000000000000000000000081526004018080602001828103825260128152602001807f4e65772057616c6c6574206973207a65726f000000000000000000000000000081525060200191505060405180910390fd5b81600160006101000a81548173ffffffffffffffffffffffffffffffffffffffff021916908373ffffffffffffffffffffffffffffffffffffffff160217905550919050565b60008060009054906101000a900473ffffffffffffffffffffffffffffffffffffffff16905090565b606060006004811115610f1d57fe5b610f2561133d565b6004811115610f3057fe5b1415610f73576040805190810160405280600781526020017f50726573616c650000000000000000000000000000000000000000000000000081525090506110ff565b60036004811115610f8057fe5b610f8861133d565b6004811115610f9357fe5b1415610fd6576040805190810160405280600681526020017f526566756e64000000000000000000000000000000000000000000000000000081525090506110ff565b60016004811115610fe357fe5b610feb61133d565b6004811115610ff657fe5b1415611039576040805190810160405280600981526020017f4d61696e2053616c65000000000000000000000000000000000000000000000081525090506110ff565b6002600481111561104657fe5b61104e61133d565b600481111561105957fe5b141561109c576040805190810160405280600581526020017f456e64656400000000000000000000000000000000000000000000000000000081525090506110ff565b6004808111156110a857fe5b6110b061133d565b60048111156110bb57fe5b14156110fe576040805190810160405280600681526020017f436c6f736564000000000000000000000000000000000000000000000000000081525090506110ff565b5b90565b60075481565b600460009054906101000a900473ffffffffffffffffffffffffffffffffffffffff1681565b60055481565b600460009054906101000a900473ffffffffffffffffffffffffffffffffffffffff1673ffffffffffffffffffffffffffffffffffffffff163373ffffffffffffffffffffffffffffffffffffffff1614151561119057600080fd5b80601d8190555050565b600073ffffffffffffffffffffffffffffffffffffffff168173ffffffffffffffffffffffffffffffffffffffff16141515156111d657600080fd5b80600460006101000a81548173ffffffffffffffffffffffffffffffffffffffff021916908373ffffffffffffffffffffffffffffffffffffffff16021790555050565b60008060009054906101000a900473ffffffffffffffffffffffffffffffffffffffff1673ffffffffffffffffffffffffffffffffffffffff166370a08231306040518263ffffffff167c0100000000000000000000000000000000000000000000000000000000028152600401808273ffffffffffffffffffffffffffffffffffffffff1673ffffffffffffffffffffffffffffffffffffffff168152602001915050602060405180830381600087803b1580156112d857600080fd5b505af11580156112ec573d6000803e3d6000fd5b505050506040513d602081101561130257600080fd5b8101908080519060200190929190505050905090565b6000809054906101000a900473ffffffffffffffffffffffffffffffffffffffff1681565b6000601a60009054906101000a900460ff161561135d5760039050611429565b601a60019054906101000a900460ff161561137b5760049050611429565b600d546113866115b5565b1115156113965760009050611429565b600d546113a16115b5565b1180156113b75750600e546113b46115b5565b11155b156113da5760065460035410156113d15760039050611429565b60019050611429565b60075460035410156113ef5760039050611429565b6000600a54111561142457600a546017541080156114155750600e546114136115b5565b115b156114235760039050611429565b5b600290505b90565b600080611473606461146561143f6115e4565b6064016114576002548861170b90919063ffffffff16565b61170b90919063ffffffff16565b61174390919063ffffffff16565b905080915050919050565b6114888282611759565b5050565b6114de82601b60008673ffffffffffffffffffffffffffffffffffffffff1673ffffffffffffffffffffffffffffffffffffffff1681526020019081526020016000205461188290919063ffffffff16565b601b60008573ffffffffffffffffffffffffffffffffffffffff1673ffffffffffffffffffffffffffffffffffffffff168152602001908152602001600020819055506115368160175461188290919063ffffffff16565b6017819055506115518260035461188290919063ffffffff16565b600381905550505050565b6000600854111561157a5760085460035410151561157957600080fd5b5b600060095411156115985760095460175410151561159757600080fd5b5b6115a13061189e565b600554111515156115b157600080fd5b5050565b600060011515601c60009054906101000a900460ff16151514156115dd57601d5490506115e1565b4290505b90565b60008060048111156115f257fe5b6115fa61133d565b600481111561160557fe5b141561163c57603c806018600f54020202601954016116226115b5565b111515611633576013549050611708565b60009050611708565b6001600481111561164957fe5b61165161133d565b600481111561165c57fe5b141561170357610e10601860125460115460105401010202600d54016116806115b5565b111561168f5760009050611708565b610e106018601154601054010202600d54016116a96115b5565b11156116b9576016549050611708565b610e1060186010540202600d54016116cf6115b5565b11156116df576015549050611708565b600d546116ea6115b5565b11156116fa576014549050611708565b60009050611708565b600090505b90565b60008083141561171e576000905061173d565b818302905081838281151561172f57fe5b0414151561173957fe5b8090505b92915050565b6000818381151561175057fe5b04905092915050565b6000809054906101000a900473ffffffffffffffffffffffffffffffffffffffff1673ffffffffffffffffffffffffffffffffffffffff1663a9059cbb83836040518363ffffffff167c0100000000000000000000000000000000000000000000000000000000028152600401808373ffffffffffffffffffffffffffffffffffffffff1673ffffffffffffffffffffffffffffffffffffffff16815260200182815260200192505050602060405180830381600087803b15801561181d57600080fd5b505af1158015611831573d6000803e3d6000fd5b505050506040513d602081101561184757600080fd5b81019080805190602001909291905050505060001515601a60029054906101000a900460ff161515141561187e5761187d61199e565b5b5050565b6000818301905082811015151561189557fe5b80905092915050565b60008060009054906101000a900473ffffffffffffffffffffffffffffffffffffffff1673ffffffffffffffffffffffffffffffffffffffff166370a08231836040518263ffffffff167c0100000000000000000000000000000000000000000000000000000000028152600401808273ffffffffffffffffffffffffffffffffffffffff1673ffffffffffffffffffffffffffffffffffffffff168152602001915050602060405180830381600087803b15801561195c57600080fd5b505af1158015611970573d6000803e3d6000fd5b505050506040513d602081101561198657600080fd5b81019080805190602001909291905050509050919050565b600160009054906101000a900473ffffffffffffffffffffffffffffffffffffffff1673ffffffffffffffffffffffffffffffffffffffff166108fc349081150290604051600060405180830381858888f19350505050158015611a06573d6000803e3d6000fd5b505600a165627a7a72305820485fc0c430cfb47e87fa9d4fea656243b0aa6bb756b7174ee556d616a171c3710029",
  "source": "pragma solidity ^0.4.24;\r\n/* pragma experimental ABIEncoderV2; */\r\n\r\n\r\nimport \"./StandardToken.sol\";\r\nimport \"./Crowdsale.sol\";\r\nimport \"./Ownable.sol\";\r\n\r\n/// @author         Robert Magier\r\n/// @title          SongCrowdSale\r\n/// @notice         This is Song ICO sale contract based on Open Zeppelin Crowdsale contract.\r\n///                 It's purpose is to sell song tokens in main sale and presale.\r\n\r\ncontract SongCrowdSale is Crowdsale, Ownable\r\n{\r\n  enum State {PreSale,Campaign,Ended,Refund,Closed}\r\n  /// @param teamTokens number of tokens reserved for a team. It is not possible to sell them.\r\n  uint256 public teamTokens;\r\n   /// @param minPreSale minimum amount of tokens sold in presale. If not sold then it is not possible to go to main\r\n   /// sale.\r\n  uint256 public minPreSaleETH;\r\n  /// @param minimum number of tokens which have to be sold in MainSale so it is successfull. If not then contributors\r\n  /// are allowed to have a refund.\r\n  uint256 public minMainSaleETH;\r\n  /// @param maximum Ether contribution. Sale contract can't sell tokens for more than this number.\r\n  uint256 maxEth;\r\n  /// @param maxCap maximum number of tokens which can be sold.\r\n  uint256 maxCap;\r\n  ///@param minCap minimum number of tokens which have to be sold or sale will be cancelled.\r\n  uint256 minCap;\r\n  /// @param durationDays main sale campaign duration in days\r\n  uint256 durationDays;\r\n  /// @param preSaleDays - presale capaign duration in days\r\n  uint256 preSaleDays;\r\n\r\n  uint256 preSaleEnd;\r\n  uint256 saleEnd;\r\n\r\n\r\n  uint256 bonusPresalePeriod;\r\n  uint256 firstPeriod;\r\n  uint256 secondPeriod;\r\n  uint256 thirdPeriod;\r\n\r\n  uint256 bonusPreSaleValue;\r\n  uint256 bonusFirstValue;\r\n  uint256 bonusSecondValue;\r\n  uint256 bonusThirdValue;\r\n\r\n\r\n  // 0 - presale 1 - first period 2-second period 3 - third period\r\n  uint256 volume;\r\n  uint256 phase=1;\r\n\r\n  uint saleStart;\r\n\r\n  bool refundAvailable = false;\r\n  bool closed = false;\r\n  bool isRefundable = false;\r\n\r\n  mapping (address=>uint256) collectedFunds;\r\n\r\n  bool debug = true;\r\n  uint256 testNow = 0;\r\n\r\n\r\nfunction DefineBonusValues(uint8 value1, uint8 value2, uint8 value3, uint8 value4) internal  returns (bool)\r\n{\r\n\r\n bonusPreSaleValue = value1;\r\n bonusFirstValue = value2;\r\n bonusSecondValue = value3;\r\n bonusThirdValue = value4;\r\n\r\n return true;\r\n}\r\n\r\nfunction DefineBonusPeriods(uint8 period1,uint8 period2,  uint8 period3, uint8 period4) internal  returns (bool)\r\n{\r\n\r\n  bonusPresalePeriod = period1;\r\n  firstPeriod = period2;\r\n  secondPeriod = period3;\r\n  thirdPeriod = period4;\r\n\r\n  return true;\r\n}\r\n\r\n\r\n///@notice Return bonus value for current moment in %. If sale is already out of bonus period it will return 0.\r\n///@dev It will fail if for any reason now is smaller than saleStart\r\nfunction currentBonusValue() internal returns (uint256)\r\n{\r\n    if (_campaignState() == State.PreSale) {\r\n      if (_now() <= (saleStart + (bonusPresalePeriod * 24 * 60 * 60))) {\r\n        return bonusPreSaleValue;\r\n      }\r\n      return 0;\r\n\r\n    }\r\n    if(_campaignState() == State.Campaign) {\r\n      if (_now() > ((preSaleEnd + (firstPeriod + secondPeriod + thirdPeriod) * 24 * 3600 ))) return 0;\r\n      if (_now() > ((preSaleEnd + (firstPeriod + secondPeriod) * 24 * 3600 ))) return bonusThirdValue;\r\n      if (_now() > ((preSaleEnd + (firstPeriod) * 24 * 3600 ))) return bonusSecondValue;\r\n      if (_now() > (preSaleEnd)) return bonusFirstValue;\r\n      return 0;\r\n    }\r\n    return 0;\r\n\r\n}\r\n\r\nfunction _campaignState() internal view returns (State _state)\r\n{\r\n  /* enum State {PreSale,Campaign,Ended, Refund} */\r\n  if (refundAvailable) return State.Refund;\r\n  if (closed) return State.Closed;\r\n  if (_now() <= preSaleEnd) return State.PreSale;\r\n  if (_now() > preSaleEnd && _now() <= saleEnd)\r\n  {\r\n    if(weiRaised < minPreSaleETH) return State.Refund;\r\n    else return State.Campaign;\r\n  }\r\n  if (weiRaised < minMainSaleETH) return State.Refund;\r\n\r\n  if (minCap > 0 ) {\r\n    if(volume < minCap && _now() > saleEnd) return State.Refund;\r\n  }\r\n\r\n  return State.Ended;\r\n}\r\n\r\nfunction CampaignState() public view returns(string) {\r\n  if(_campaignState() == State.PreSale) return \"Presale\";\r\n  if(_campaignState() == State.Refund) return \"Refund\";\r\n  if(_campaignState() == State.Campaign) return \"Main Sale\";\r\n  if(_campaignState() == State.Ended) return \"Ended\";\r\n  if(_campaignState() == State.Closed) return \"Closed\";\r\n}\r\n\r\n  /// @param _newwallet new wallet address. Must not be zero.\r\n  /// @notice This function change wallet address\r\n  function ChangeWallet (address _newwallet) public onlyOwner returns (bool)\r\n  {\r\n    require (_newwallet != 0x0,\"New Wallet is zero\");\r\n    wallet = _newwallet;\r\n  }\r\n\r\n  /// @notice This function sets tokenaddress if it hasn't been yet set.\r\n  /// @dev You can call this function only once. If you set token and it is wrong address then you have to create new crowdsale function\r\n    function SetTokenAddress (address _tokenAddress) public onlyOwner returns (bool)\r\n  {\r\n    require (_tokenAddress != address(0x0),\"Token Address is Zero\");\r\n    require (token == ERC20(0x0),\"Token was already defined\");\r\n\r\n    token = ERC20( _tokenAddress);\r\n  }\r\n\r\n\r\n  constructor (uint _price,address _wallet, ERC20 _song, uint _teamTokens,uint256[] constraints , uint _duration, uint _presaleduration,uint8[] bonuses) public Crowdsale(_price,_wallet,ERC20(_song))\r\n  {\r\n\r\n\r\n    uint _minpresale = constraints[0];\r\n    uint _minMainSaleETH = constraints[1];\r\n    uint _maxEth = constraints[2];\r\n    uint _maxCap = constraints[3];\r\n    uint _minCap = constraints[4];\r\n\r\n    token = _song;\r\n\r\n     minPreSaleETH = _minpresale;\r\n     minMainSaleETH = _minMainSaleETH;\r\n     maxEth = _maxEth;\r\n     maxCap = _maxCap;\r\n     minCap = _minCap;\r\n     durationDays = _duration;\r\n     preSaleDays = _presaleduration;\r\n     saleStart = _now();\r\n     preSaleEnd = saleStart + (preSaleDays * 24 * 60 * 60);\r\n     saleEnd = preSaleEnd + (durationDays * 24 * 60 * 60);\r\n     teamTokens = _teamTokens;\r\n     owner = tx.origin;\r\n\r\n     if(bonuses.length==8)\r\n     {\r\n       require (bonuses[0] <= preSaleDays); // bonus period for presale must be smaller or equal than presale itself. Make sense ?\r\n       require ((bonuses[2] + bonuses [4] + bonuses[6]) <= durationDays); // same as above, but for main sale.\r\n       DefineBonusValues(bonuses[1],bonuses[3],bonuses[5],bonuses[7]);\r\n       DefineBonusPeriods(bonuses[0],bonuses[2],bonuses[4],bonuses[6]);\r\n     }\r\n\r\n     if ( minPreSaleETH > 0 || minMainSaleETH > 0 ) isRefundable = true;\r\n\r\n\r\n  }\r\n\r\nfunction withdrawFunds() public returns(bool) {\r\n  require(msg.sender == wallet);\r\n  require(_campaignState() == State.Ended);\r\n  uint256 toSend;\r\n  toSend = weiRaised;\r\n  weiRaised = 0;\r\n  msg.sender.transfer(toSend);\r\n  closed = true;\r\n}\r\n\r\nfunction _now() internal view returns (uint256) {\r\n  if (debug == true) return testNow;\r\n  else return now;\r\n}\r\n\r\nfunction SetTestNow(uint256 _testNow) public onlyOwner {\r\n  testNow = _testNow;\r\n}\r\n\r\n  function GetSaleInformation() public view returns (\r\n       uint256 _price,\r\n       address _wallet,\r\n       address _song,\r\n       uint256 _teamTokens,\r\n       uint256 _minpresale,\r\n       uint256 _minMainSaleETH,\r\n       uint256 _maxETH,\r\n       uint256 _minCap,\r\n       uint256 _duration,\r\n       uint256 _presaleduration\r\n       )\r\n  {\r\n      return (rate,wallet,token,teamTokens,minPreSaleETH,minMainSaleETH,maxEth,minCap, durationDays,preSaleDays);\r\n  }\r\n\r\n  function GetStats() public view returns (\r\n    uint256 _contribution,\r\n    uint256 _volume,\r\n    uint8 _phase\r\n    )\r\n{\r\n  return (weiRaised, volume,uint8(phase) );\r\n}\r\n\r\nfunction _processPurchase(\r\n  address _beneficiary,\r\n  uint256 _tokenAmount\r\n)\r\n  internal\r\n{\r\n  _deliverTokens(_beneficiary, _tokenAmount);\r\n}\r\n\r\n/**\r\n * @dev low level token purchase ***DO NOT OVERRIDE***\r\n * @param _beneficiary Address performing the token purchase\r\n */\r\nfunction buyTokens(address _beneficiary) public payable returns(bool)  {\r\n  require (refundAvailable == false);\r\n  require (_campaignState() != State.Ended);\r\n  if (_campaignState() == State.Refund) {\r\n    refundAvailable = true;\r\n    msg.sender.transfer(msg.value);\r\n    return;\r\n   }\r\n  uint256 weiAmount = msg.value;\r\n  /* _preValidatePurchase(_beneficiary, weiAmount); */\r\n\r\n  // calculate token amount to be created\r\n  uint256 tokens = _getTokenAmount(weiAmount);\r\n  _processPurchase(_beneficiary, tokens);\r\n  emit TokenPurchase(\r\n    msg.sender,\r\n    _beneficiary,\r\n    weiAmount,\r\n    tokens\r\n  );\r\n\r\n  _updatePurchasingState(_beneficiary, weiAmount, tokens);\r\n  _postValidatePurchase(_beneficiary, weiAmount);\r\n}\r\n\r\nfunction _getTokenAmount(uint256 _weiAmount)\r\n  internal view returns (uint256)\r\n{\r\n\r\n  /* uint256 tokenAmount = _weiAmount.mul(rate).mul(100 + 20).div(100); */\r\n  uint256 tokenAmount = _weiAmount.mul(rate).mul(100 + currentBonusValue()).div(100);\r\n  return tokenAmount;\r\n}\r\n\r\n\r\nfunction _preValidatePurchase(\r\n  address _beneficiary,\r\n  uint256 _weiAmount\r\n)\r\n  internal\r\n{\r\n  require(_beneficiary != address(0));\r\n  require(_weiAmount != 0);\r\n}\r\n\r\nfunction _postValidatePurchase(\r\n  address _beneficiary,\r\n  uint256 _weiAmount\r\n)\r\n  internal\r\n{\r\n  if(maxEth > 0) {\r\n    require(weiRaised < maxEth);\r\n  }\r\n\r\n  if(maxCap > 0) {\r\n    require(volume < maxCap);\r\n  }\r\n  //cancel if there is not enough tokens for a team\r\n  require(teamTokens <= _balance(this));\r\n}\r\n\r\nfunction _balance(address _who) internal returns (uint256)\r\n{\r\n  return token.balanceOf(_who);\r\n}\r\nfunction _updatePurchasingState(\r\n  address _beneficiary,\r\n  uint256 _weiAmount,uint256 _tokenAmount\r\n)\r\n  internal\r\n{\r\n  collectedFunds[_beneficiary] = collectedFunds[_beneficiary].add(_weiAmount);\r\n  volume = volume.add(_tokenAmount);\r\n  weiRaised = weiRaised.add(_weiAmount);\r\n}\r\n\r\nfunction () external payable {\r\n  buyTokens(msg.sender);\r\n}\r\n\r\nfunction refund() public {\r\n  require(collectedFunds[msg.sender] > 0);\r\n  require(refundAvailable || _campaignState() == State.Refund);\r\n  refundAvailable = true;\r\n  uint256 toRefund = collectedFunds[msg.sender];\r\n  collectedFunds[msg.sender] = 0;\r\n  msg.sender.transfer(toRefund);\r\n}\r\n\r\n\r\nfunction _deliverTokens(\r\n  address _beneficiary,\r\n  uint256 _tokenAmount\r\n)\r\n  internal\r\n{\r\n  token.transfer(_beneficiary, _tokenAmount);\r\n  if(isRefundable == false) {\r\n    _forwardFunds();\r\n  }\r\n}\r\n\r\nfunction GetBalance() public view returns(uint256) {\r\n  return token.balanceOf(this);\r\n}\r\n\r\nfunction GetToken() public view returns(address) {\r\n  return token;\r\n}\r\n\r\n}\r\n",
  "sourcePath": "C:\\projects\\TuneTrade\\smartcontract\\contracts\\SongCrowdsale.sol",
  "compiler": {
    "name": "solc",
    "version": "0.4.24+commit.e67f0147.Emscripten.clang"
  },
  "schemaVersion": "2.0.1",
  "updatedAt": "2018-09-19T18:21:50.080Z"
}